:100000000C9434000C944B000C943E000C943E0075
:100010000C943E000C943E000C943E000C943E0068
:100020000C943E000C943E000C943E000C943E0058
:100030000C943E000C943E000C943E000C943E0048
:100040000C943E000C943E000C943E000C943E0038
:100050000C943E000C943E000C943E000C943E0028
:100060000C943E000C943E0011241FBECFEFD8E04C
:10007000DEBFCDBF0E9440000C9468000C940000CD
:1000800080E284B984E08BB982E08093690081E0EA
:100090008DBB7894FFCF1F920F920FB60F92112451
:1000A0002F938F939F9395B180E2892785B92FE78E
:1000B00089EA93E0215080409040E1F700C00000C1
:1000C0009F918F912F910F900FBE0F901F901895B9
:0400D000F894FFCFD2
:00000001FF
