:020000020000FC
:100000000C9404000C94120048E04EBF4FEF4DBF1B
:1000100042E040936900259A5A9A41E04DBB78949A
:100020000C94100055B160E256270ED014D013D0B6
:1000300019D018D017D016D015D014D013D012D094
:1000400011D010D055B918950F9308EC0BD00A9524
:10005000E9F70F9108950F9304E60AD00A95E9F79E
:100060000F91089505D004D003D002D001D0089597
:100070000F9303E6000000000000000000000000F5
:0A00800000000A95B9F70F910895EA
:00000001FF
